{
  "_format": "hh-sol-artifact-1",
  "contractName": "MemeXLottery",
  "sourceName": "contracts/Lottery/MemeXLottery.sol",
  "abi": [
    {
      "anonymous": false,
      "inputs": [
        {
          "indexed": false,
          "internalType": "address",
          "name": "previousAdmin",
          "type": "address"
        },
        {
          "indexed": false,
          "internalType": "address",
          "name": "newAdmin",
          "type": "address"
        }
      ],
      "name": "AdminChanged",
      "type": "event"
    },
    {
      "anonymous": false,
      "inputs": [
        {
          "indexed": true,
          "internalType": "address",
          "name": "beacon",
          "type": "address"
        }
      ],
      "name": "BeaconUpgraded",
      "type": "event"
    },
    {
      "anonymous": false,
      "inputs": [
        {
          "indexed": false,
          "internalType": "uint8",
          "name": "version",
          "type": "uint8"
        }
      ],
      "name": "Initialized",
      "type": "event"
    },
    {
      "anonymous": false,
      "inputs": [
        {
          "indexed": true,
          "internalType": "uint256",
          "name": "lotteryId",
          "type": "uint256"
        },
        {
          "indexed": false,
          "internalType": "uint256",
          "name": "numberOfPrizes",
          "type": "uint256"
        }
      ],
      "name": "LotteryPrizesCountChanged",
      "type": "event"
    },
    {
      "anonymous": false,
      "inputs": [
        {
          "indexed": true,
          "internalType": "uint256",
          "name": "lotteryId",
          "type": "uint256"
        },
        {
          "indexed": true,
          "internalType": "enum MemeXLottery.Status",
          "name": "status",
          "type": "uint8"
        }
      ],
      "name": "LotteryStatusChanged",
      "type": "event"
    },
    {
      "anonymous": false,
      "inputs": [
        {
          "indexed": false,
          "internalType": "address",
          "name": "account",
          "type": "address"
        }
      ],
      "name": "Paused",
      "type": "event"
    },
    {
      "anonymous": false,
      "inputs": [
        {
          "indexed": true,
          "internalType": "uint256",
          "name": "lotteryId",
          "type": "uint256"
        },
        {
          "indexed": true,
          "internalType": "address",
          "name": "participantAddress",
          "type": "address"
        },
        {
          "indexed": true,
          "internalType": "uint256",
          "name": "prizeId",
          "type": "uint256"
        }
      ],
      "name": "PrizeClaimed",
      "type": "event"
    },
    {
      "anonymous": false,
      "inputs": [
        {
          "indexed": true,
          "internalType": "uint256",
          "name": "lotteryId",
          "type": "uint256"
        },
        {
          "indexed": true,
          "internalType": "address",
          "name": "participantAddress",
          "type": "address"
        },
        {
          "indexed": false,
          "internalType": "uint256",
          "name": "refundAmount",
          "type": "uint256"
        }
      ],
      "name": "Refunded",
      "type": "event"
    },
    {
      "anonymous": false,
      "inputs": [
        {
          "indexed": true,
          "internalType": "uint256",
          "name": "lotteryId",
          "type": "uint256"
        },
        {
          "indexed": true,
          "internalType": "bytes32",
          "name": "requestId",
          "type": "bytes32"
        }
      ],
      "name": "RequestNumbers",
      "type": "event"
    },
    {
      "anonymous": false,
      "inputs": [
        {
          "indexed": true,
          "internalType": "bytes32",
          "name": "requestId",
          "type": "bytes32"
        }
      ],
      "name": "ResponseReceived",
      "type": "event"
    },
    {
      "anonymous": false,
      "inputs": [
        {
          "indexed": true,
          "internalType": "bytes32",
          "name": "role",
          "type": "bytes32"
        },
        {
          "indexed": true,
          "internalType": "bytes32",
          "name": "previousAdminRole",
          "type": "bytes32"
        },
        {
          "indexed": true,
          "internalType": "bytes32",
          "name": "newAdminRole",
          "type": "bytes32"
        }
      ],
      "name": "RoleAdminChanged",
      "type": "event"
    },
    {
      "anonymous": false,
      "inputs": [
        {
          "indexed": true,
          "internalType": "bytes32",
          "name": "role",
          "type": "bytes32"
        },
        {
          "indexed": true,
          "internalType": "address",
          "name": "account",
          "type": "address"
        },
        {
          "indexed": true,
          "internalType": "address",
          "name": "sender",
          "type": "address"
        }
      ],
      "name": "RoleGranted",
      "type": "event"
    },
    {
      "anonymous": false,
      "inputs": [
        {
          "indexed": true,
          "internalType": "bytes32",
          "name": "role",
          "type": "bytes32"
        },
        {
          "indexed": true,
          "internalType": "address",
          "name": "account",
          "type": "address"
        },
        {
          "indexed": true,
          "internalType": "address",
          "name": "sender",
          "type": "address"
        }
      ],
      "name": "RoleRevoked",
      "type": "event"
    },
    {
      "anonymous": false,
      "inputs": [
        {
          "indexed": false,
          "internalType": "address",
          "name": "operator",
          "type": "address"
        },
        {
          "indexed": false,
          "internalType": "uint256",
          "name": "lotteryId",
          "type": "uint256"
        },
        {
          "indexed": false,
          "internalType": "uint256",
          "name": "priceOfTicket",
          "type": "uint256"
        }
      ],
      "name": "TicketCostChanged",
      "type": "event"
    },
    {
      "anonymous": false,
      "inputs": [
        {
          "indexed": true,
          "internalType": "uint256",
          "name": "lotteryId",
          "type": "uint256"
        },
        {
          "indexed": false,
          "internalType": "uint256",
          "name": "ticketNumber",
          "type": "uint256"
        },
        {
          "indexed": true,
          "internalType": "address",
          "name": "participantAddress",
          "type": "address"
        },
        {
          "indexed": false,
          "internalType": "enum MemeXLottery.PriceTier",
          "name": "tier",
          "type": "uint8"
        }
      ],
      "name": "TicketSold",
      "type": "event"
    },
    {
      "anonymous": false,
      "inputs": [
        {
          "indexed": false,
          "internalType": "address",
          "name": "account",
          "type": "address"
        }
      ],
      "name": "Unpaused",
      "type": "event"
    },
    {
      "anonymous": false,
      "inputs": [
        {
          "indexed": true,
          "internalType": "address",
          "name": "implementation",
          "type": "address"
        }
      ],
      "name": "Upgraded",
      "type": "event"
    },
    {
      "inputs": [],
      "name": "DEFAULT_ADMIN_ROLE",
      "outputs": [
        {
          "internalType": "bytes32",
          "name": "",
          "type": "bytes32"
        }
      ],
      "stateMutability": "view",
      "type": "function"
    },
    {
      "inputs": [
        {
          "internalType": "uint256",
          "name": "_lotteryId",
          "type": "uint256"
        },
        {
          "internalType": "uint256[]",
          "name": "_prizeIds",
          "type": "uint256[]"
        },
        {
          "internalType": "uint16[]",
          "name": "_prizeAmounts",
          "type": "uint16[]"
        }
      ],
      "name": "addPrizes",
      "outputs": [],
      "stateMutability": "nonpayable",
      "type": "function"
    },
    {
      "inputs": [
        {
          "internalType": "uint256",
          "name": "_lotteryId",
          "type": "uint256"
        }
      ],
      "name": "askForRefund",
      "outputs": [],
      "stateMutability": "nonpayable",
      "type": "function"
    },
    {
      "inputs": [
        {
          "internalType": "uint256",
          "name": "_lotteryId",
          "type": "uint256"
        },
        {
          "internalType": "uint256",
          "name": "_numberOfTicketsToBuy",
          "type": "uint256"
        },
        {
          "internalType": "enum MemeXLottery.PriceTier",
          "name": "_tier",
          "type": "uint8"
        }
      ],
      "name": "buyTickets",
      "outputs": [
        {
          "internalType": "uint256",
          "name": "",
          "type": "uint256"
        }
      ],
      "stateMutability": "payable",
      "type": "function"
    },
    {
      "inputs": [
        {
          "internalType": "uint256",
          "name": "_lotteryId",
          "type": "uint256"
        }
      ],
      "name": "cancelLottery",
      "outputs": [],
      "stateMutability": "nonpayable",
      "type": "function"
    },
    {
      "inputs": [
        {
          "internalType": "uint256",
          "name": "_lotteryId",
          "type": "uint256"
        },
        {
          "internalType": "uint32",
          "name": "_time",
          "type": "uint32"
        }
      ],
      "name": "changeCloseTime",
      "outputs": [],
      "stateMutability": "nonpayable",
      "type": "function"
    },
    {
      "inputs": [
        {
          "internalType": "uint256",
          "name": "_lotteryId",
          "type": "uint256"
        },
        {
          "internalType": "uint256",
          "name": "_numberOfTicketsToBuy",
          "type": "uint256"
        },
        {
          "internalType": "uint256",
          "name": "_points",
          "type": "uint256"
        },
        {
          "internalType": "bytes32[]",
          "name": "_proof",
          "type": "bytes32[]"
        },
        {
          "internalType": "enum MemeXLottery.PriceTier",
          "name": "_tier",
          "type": "uint8"
        }
      ],
      "name": "claimPointsAndBuyTickets",
      "outputs": [
        {
          "internalType": "uint256",
          "name": "",
          "type": "uint256"
        }
      ],
      "stateMutability": "payable",
      "type": "function"
    },
    {
      "inputs": [
        {
          "internalType": "uint256",
          "name": "_lotteryId",
          "type": "uint256"
        },
        {
          "internalType": "address",
          "name": "_winner",
          "type": "address"
        },
        {
          "internalType": "uint256",
          "name": "_prizeId",
          "type": "uint256"
        },
        {
          "internalType": "uint256",
          "name": "_ticketNumber",
          "type": "uint256"
        },
        {
          "internalType": "bytes32[]",
          "name": "_proof",
          "type": "bytes32[]"
        }
      ],
      "name": "claimPrize",
      "outputs": [],
      "stateMutability": "nonpayable",
      "type": "function"
    },
    {
      "inputs": [
        {
          "internalType": "uint256",
          "name": "",
          "type": "uint256"
        },
        {
          "internalType": "uint256",
          "name": "",
          "type": "uint256"
        }
      ],
      "name": "claimedPrizes",
      "outputs": [
        {
          "internalType": "bool",
          "name": "",
          "type": "bool"
        }
      ],
      "stateMutability": "view",
      "type": "function"
    },
    {
      "inputs": [
        {
          "internalType": "uint256",
          "name": "_lotteryId",
          "type": "uint256"
        },
        {
          "internalType": "uint256",
          "name": "_collectionId",
          "type": "uint256"
        },
        {
          "internalType": "uint256",
          "name": "_vipTicketCostPoints",
          "type": "uint256"
        },
        {
          "internalType": "uint256",
          "name": "_vipTicketCostCoins",
          "type": "uint256"
        },
        {
          "internalType": "uint256",
          "name": "_memberTicketCostPoints",
          "type": "uint256"
        },
        {
          "internalType": "uint256",
          "name": "_memberTicketCostCoins",
          "type": "uint256"
        },
        {
          "internalType": "uint256",
          "name": "_nonMemberTicketCostCoins",
          "type": "uint256"
        },
        {
          "internalType": "uint32",
          "name": "_startTime",
          "type": "uint32"
        },
        {
          "internalType": "uint32",
          "name": "_closeTime",
          "type": "uint32"
        },
        {
          "internalType": "contract IMemeXNFT",
          "name": "_nftContract",
          "type": "address"
        },
        {
          "internalType": "bool",
          "name": "_isRefundable",
          "type": "bool"
        },
        {
          "internalType": "uint256",
          "name": "_defaultPrizeId",
          "type": "uint256"
        }
      ],
      "name": "createNewLottery",
      "outputs": [],
      "stateMutability": "nonpayable",
      "type": "function"
    },
    {
      "inputs": [],
      "name": "getLotteryCount",
      "outputs": [
        {
          "internalType": "uint256",
          "name": "",
          "type": "uint256"
        }
      ],
      "stateMutability": "view",
      "type": "function"
    },
    {
      "inputs": [
        {
          "internalType": "uint256",
          "name": "_lotteryId",
          "type": "uint256"
        }
      ],
      "name": "getLotteryInfo",
      "outputs": [
        {
          "components": [
            {
              "internalType": "uint32",
              "name": "startTime",
              "type": "uint32"
            },
            {
              "internalType": "uint32",
              "name": "closeTime",
              "type": "uint32"
            },
            {
              "internalType": "uint32",
              "name": "participantsCount",
              "type": "uint32"
            },
            {
              "internalType": "uint32",
              "name": "maxTickets",
              "type": "uint32"
            },
            {
              "internalType": "uint32",
              "name": "maxTicketsPerUser",
              "type": "uint32"
            },
            {
              "internalType": "uint32",
              "name": "numberOfTicketsSold",
              "type": "uint32"
            },
            {
              "internalType": "enum MemeXLottery.Status",
              "name": "status",
              "type": "uint8"
            },
            {
              "internalType": "contract IMemeXNFT",
              "name": "nftContract",
              "type": "address"
            },
            {
              "internalType": "bool",
              "name": "isRefundable",
              "type": "bool"
            },
            {
              "internalType": "uint256",
              "name": "lotteryID",
              "type": "uint256"
            },
            {
              "internalType": "uint256",
              "name": "dropId",
              "type": "uint256"
            },
            {
              "internalType": "uint256",
              "name": "vipTicketCostPoints",
              "type": "uint256"
            },
            {
              "internalType": "uint256",
              "name": "vipTicketCostCoins",
              "type": "uint256"
            },
            {
              "internalType": "uint256",
              "name": "memberTicketCostPoints",
              "type": "uint256"
            },
            {
              "internalType": "uint256",
              "name": "memberTicketCostCoins",
              "type": "uint256"
            },
            {
              "internalType": "uint256",
              "name": "nonMemberTicketCostCoins",
              "type": "uint256"
            },
            {
              "internalType": "uint256",
              "name": "defaultPrizeId",
              "type": "uint256"
            }
          ],
          "internalType": "struct MemeXLottery.LotteryInfo",
          "name": "",
          "type": "tuple"
        }
      ],
      "stateMutability": "view",
      "type": "function"
    },
    {
      "inputs": [
        {
          "internalType": "uint256",
          "name": "_lotteryId",
          "type": "uint256"
        }
      ],
      "name": "getLotteryTicketCount",
      "outputs": [
        {
          "internalType": "uint256",
          "name": "",
          "type": "uint256"
        }
      ],
      "stateMutability": "view",
      "type": "function"
    },
    {
      "inputs": [
        {
          "internalType": "uint256",
          "name": "_lotteryId",
          "type": "uint256"
        },
        {
          "internalType": "uint256",
          "name": "_from",
          "type": "uint256"
        },
        {
          "internalType": "uint256",
          "name": "_to",
          "type": "uint256"
        }
      ],
      "name": "getLotteryTickets",
      "outputs": [
        {
          "components": [
            {
              "internalType": "uint256",
              "name": "ticketCostInCoins",
              "type": "uint256"
            },
            {
              "internalType": "address",
              "name": "owner",
              "type": "address"
            }
          ],
          "internalType": "struct MemeXLottery.Ticket[]",
          "name": "",
          "type": "tuple[]"
        }
      ],
      "stateMutability": "view",
      "type": "function"
    },
    {
      "inputs": [
        {
          "internalType": "address",
          "name": "_participant",
          "type": "address"
        }
      ],
      "name": "getParticipantHistory",
      "outputs": [
        {
          "internalType": "uint256[]",
          "name": "",
          "type": "uint256[]"
        }
      ],
      "stateMutability": "view",
      "type": "function"
    },
    {
      "inputs": [
        {
          "internalType": "uint256",
          "name": "_lotteryId",
          "type": "uint256"
        }
      ],
      "name": "getParticipantsCount",
      "outputs": [
        {
          "internalType": "uint32",
          "name": "",
          "type": "uint32"
        }
      ],
      "stateMutability": "view",
      "type": "function"
    },
    {
      "inputs": [
        {
          "internalType": "uint256",
          "name": "_lotteryId",
          "type": "uint256"
        }
      ],
      "name": "getPrizes",
      "outputs": [
        {
          "components": [
            {
              "internalType": "uint256",
              "name": "prizeId",
              "type": "uint256"
            },
            {
              "internalType": "uint16",
              "name": "numberOfEditions",
              "type": "uint16"
            }
          ],
          "internalType": "struct MemeXLottery.PrizeInfo[]",
          "name": "",
          "type": "tuple[]"
        }
      ],
      "stateMutability": "view",
      "type": "function"
    },
    {
      "inputs": [
        {
          "internalType": "uint256",
          "name": "_lotteryId",
          "type": "uint256"
        },
        {
          "internalType": "address",
          "name": "_user",
          "type": "address"
        }
      ],
      "name": "getRefundableCoinBalance",
      "outputs": [
        {
          "internalType": "uint256",
          "name": "",
          "type": "uint256"
        }
      ],
      "stateMutability": "view",
      "type": "function"
    },
    {
      "inputs": [
        {
          "internalType": "bytes32",
          "name": "role",
          "type": "bytes32"
        }
      ],
      "name": "getRoleAdmin",
      "outputs": [
        {
          "internalType": "bytes32",
          "name": "",
          "type": "bytes32"
        }
      ],
      "stateMutability": "view",
      "type": "function"
    },
    {
      "inputs": [
        {
          "internalType": "uint256",
          "name": "_lotteryId",
          "type": "uint256"
        },
        {
          "internalType": "address",
          "name": "_user",
          "type": "address"
        }
      ],
      "name": "getTicketCountPerUser",
      "outputs": [
        {
          "internalType": "uint256",
          "name": "",
          "type": "uint256"
        }
      ],
      "stateMutability": "view",
      "type": "function"
    },
    {
      "inputs": [
        {
          "internalType": "uint256",
          "name": "_lotteryId",
          "type": "uint256"
        }
      ],
      "name": "getWhitelist",
      "outputs": [
        {
          "internalType": "address",
          "name": "",
          "type": "address"
        }
      ],
      "stateMutability": "view",
      "type": "function"
    },
    {
      "inputs": [
        {
          "internalType": "bytes32",
          "name": "role",
          "type": "bytes32"
        },
        {
          "internalType": "address",
          "name": "account",
          "type": "address"
        }
      ],
      "name": "grantRole",
      "outputs": [],
      "stateMutability": "nonpayable",
      "type": "function"
    },
    {
      "inputs": [
        {
          "internalType": "bytes32",
          "name": "role",
          "type": "bytes32"
        },
        {
          "internalType": "address",
          "name": "account",
          "type": "address"
        }
      ],
      "name": "hasRole",
      "outputs": [
        {
          "internalType": "bool",
          "name": "",
          "type": "bool"
        }
      ],
      "stateMutability": "view",
      "type": "function"
    },
    {
      "inputs": [
        {
          "internalType": "address",
          "name": "_rewardsContract",
          "type": "address"
        },
        {
          "internalType": "address",
          "name": "_admin",
          "type": "address"
        }
      ],
      "name": "initialize",
      "outputs": [],
      "stateMutability": "nonpayable",
      "type": "function"
    },
    {
      "inputs": [
        {
          "internalType": "uint256",
          "name": "",
          "type": "uint256"
        }
      ],
      "name": "lotteries",
      "outputs": [
        {
          "internalType": "uint256",
          "name": "",
          "type": "uint256"
        }
      ],
      "stateMutability": "view",
      "type": "function"
    },
    {
      "inputs": [
        {
          "internalType": "uint256",
          "name": "",
          "type": "uint256"
        },
        {
          "internalType": "uint256",
          "name": "",
          "type": "uint256"
        }
      ],
      "name": "lotteryTickets",
      "outputs": [
        {
          "internalType": "uint256",
          "name": "ticketCostInCoins",
          "type": "uint256"
        },
        {
          "internalType": "address",
          "name": "owner",
          "type": "address"
        }
      ],
      "stateMutability": "view",
      "type": "function"
    },
    {
      "inputs": [
        {
          "internalType": "uint256",
          "name": "",
          "type": "uint256"
        },
        {
          "internalType": "address",
          "name": "",
          "type": "address"
        }
      ],
      "name": "participants",
      "outputs": [
        {
          "internalType": "uint16",
          "name": "totalTicketsBought",
          "type": "uint16"
        },
        {
          "internalType": "bool",
          "name": "claimedPrize",
          "type": "bool"
        },
        {
          "internalType": "uint256",
          "name": "refundablePoints",
          "type": "uint256"
        },
        {
          "internalType": "uint256",
          "name": "refundableValue",
          "type": "uint256"
        }
      ],
      "stateMutability": "view",
      "type": "function"
    },
    {
      "inputs": [],
      "name": "pause",
      "outputs": [],
      "stateMutability": "nonpayable",
      "type": "function"
    },
    {
      "inputs": [],
      "name": "paused",
      "outputs": [
        {
          "internalType": "bool",
          "name": "",
          "type": "bool"
        }
      ],
      "stateMutability": "view",
      "type": "function"
    },
    {
      "inputs": [
        {
          "internalType": "uint256",
          "name": "_lotteryId",
          "type": "uint256"
        },
        {
          "internalType": "uint256",
          "name": "_ticketNumber",
          "type": "uint256"
        }
      ],
      "name": "prizeClaimed",
      "outputs": [
        {
          "internalType": "bool",
          "name": "",
          "type": "bool"
        }
      ],
      "stateMutability": "view",
      "type": "function"
    },
    {
      "inputs": [
        {
          "internalType": "uint256",
          "name": "",
          "type": "uint256"
        }
      ],
      "name": "prizeMerkleRoots",
      "outputs": [
        {
          "internalType": "bytes32",
          "name": "",
          "type": "bytes32"
        }
      ],
      "stateMutability": "view",
      "type": "function"
    },
    {
      "inputs": [
        {
          "internalType": "uint256",
          "name": "",
          "type": "uint256"
        },
        {
          "internalType": "uint256",
          "name": "",
          "type": "uint256"
        }
      ],
      "name": "prizes",
      "outputs": [
        {
          "internalType": "uint256",
          "name": "prizeId",
          "type": "uint256"
        },
        {
          "internalType": "uint16",
          "name": "numberOfEditions",
          "type": "uint16"
        }
      ],
      "stateMutability": "view",
      "type": "function"
    },
    {
      "inputs": [],
      "name": "proxiableUUID",
      "outputs": [
        {
          "internalType": "bytes32",
          "name": "",
          "type": "bytes32"
        }
      ],
      "stateMutability": "view",
      "type": "function"
    },
    {
      "inputs": [],
      "name": "randomGenerator",
      "outputs": [
        {
          "internalType": "contract IRandomNumberGenerator",
          "name": "",
          "type": "address"
        }
      ],
      "stateMutability": "view",
      "type": "function"
    },
    {
      "inputs": [
        {
          "internalType": "uint256",
          "name": "",
          "type": "uint256"
        }
      ],
      "name": "randomSeeds",
      "outputs": [
        {
          "internalType": "uint256",
          "name": "",
          "type": "uint256"
        }
      ],
      "stateMutability": "view",
      "type": "function"
    },
    {
      "inputs": [
        {
          "internalType": "uint256",
          "name": "_lotteryId",
          "type": "uint256"
        },
        {
          "internalType": "bytes32",
          "name": "_requestId",
          "type": "bytes32"
        },
        {
          "internalType": "uint256",
          "name": "_randomNumber",
          "type": "uint256"
        }
      ],
      "name": "receiveRandomNumber",
      "outputs": [],
      "stateMutability": "nonpayable",
      "type": "function"
    },
    {
      "inputs": [
        {
          "internalType": "uint256",
          "name": "_lotteryId",
          "type": "uint256"
        },
        {
          "internalType": "uint256",
          "name": "_index",
          "type": "uint256"
        }
      ],
      "name": "removePrize",
      "outputs": [],
      "stateMutability": "nonpayable",
      "type": "function"
    },
    {
      "inputs": [
        {
          "internalType": "bytes32",
          "name": "role",
          "type": "bytes32"
        },
        {
          "internalType": "address",
          "name": "account",
          "type": "address"
        }
      ],
      "name": "renounceRole",
      "outputs": [],
      "stateMutability": "nonpayable",
      "type": "function"
    },
    {
      "inputs": [
        {
          "internalType": "uint256",
          "name": "_lotteryId",
          "type": "uint256"
        }
      ],
      "name": "requestRandomNumber",
      "outputs": [],
      "stateMutability": "nonpayable",
      "type": "function"
    },
    {
      "inputs": [
        {
          "internalType": "bytes32",
          "name": "role",
          "type": "bytes32"
        },
        {
          "internalType": "address",
          "name": "account",
          "type": "address"
        }
      ],
      "name": "revokeRole",
      "outputs": [],
      "stateMutability": "nonpayable",
      "type": "function"
    },
    {
      "inputs": [],
      "name": "rewardsContract",
      "outputs": [
        {
          "internalType": "contract IRewards",
          "name": "",
          "type": "address"
        }
      ],
      "stateMutability": "view",
      "type": "function"
    },
    {
      "inputs": [
        {
          "internalType": "uint256",
          "name": "_lotteryId",
          "type": "uint256"
        },
        {
          "internalType": "uint32",
          "name": "_maxTickets",
          "type": "uint32"
        }
      ],
      "name": "setMaxTickets",
      "outputs": [],
      "stateMutability": "nonpayable",
      "type": "function"
    },
    {
      "inputs": [
        {
          "internalType": "uint256",
          "name": "_lotteryId",
          "type": "uint256"
        },
        {
          "internalType": "uint32",
          "name": "_maxTicketsPerUser",
          "type": "uint32"
        }
      ],
      "name": "setMaxTicketsPerUser",
      "outputs": [],
      "stateMutability": "nonpayable",
      "type": "function"
    },
    {
      "inputs": [
        {
          "internalType": "uint256",
          "name": "_lotteryId",
          "type": "uint256"
        },
        {
          "internalType": "bytes32",
          "name": "_root",
          "type": "bytes32"
        }
      ],
      "name": "setPrizeMerkleRoot",
      "outputs": [],
      "stateMutability": "nonpayable",
      "type": "function"
    },
    {
      "inputs": [
        {
          "internalType": "address",
          "name": "_IRandomNumberGenerator",
          "type": "address"
        }
      ],
      "name": "setRandomGenerator",
      "outputs": [],
      "stateMutability": "nonpayable",
      "type": "function"
    },
    {
      "inputs": [
        {
          "internalType": "address",
          "name": "_rewardsContract",
          "type": "address"
        }
      ],
      "name": "setRewardsContract",
      "outputs": [],
      "stateMutability": "nonpayable",
      "type": "function"
    },
    {
      "inputs": [
        {
          "internalType": "uint256",
          "name": "_lotteryId",
          "type": "uint256"
        },
        {
          "internalType": "address",
          "name": "_whitelist",
          "type": "address"
        }
      ],
      "name": "setWhitelist",
      "outputs": [],
      "stateMutability": "nonpayable",
      "type": "function"
    },
    {
      "inputs": [
        {
          "internalType": "bytes4",
          "name": "interfaceId",
          "type": "bytes4"
        }
      ],
      "name": "supportsInterface",
      "outputs": [
        {
          "internalType": "bool",
          "name": "",
          "type": "bool"
        }
      ],
      "stateMutability": "view",
      "type": "function"
    },
    {
      "inputs": [],
      "name": "unpause",
      "outputs": [],
      "stateMutability": "nonpayable",
      "type": "function"
    },
    {
      "inputs": [
        {
          "internalType": "uint256",
          "name": "lotteryId",
          "type": "uint256"
        },
        {
          "internalType": "uint256",
          "name": "_vipTicketCostPoints",
          "type": "uint256"
        },
        {
          "internalType": "uint256",
          "name": "_vipTicketCostCoins",
          "type": "uint256"
        },
        {
          "internalType": "uint256",
          "name": "_memberTicketCostPoints",
          "type": "uint256"
        },
        {
          "internalType": "uint256",
          "name": "_memberTicketCostCoins",
          "type": "uint256"
        },
        {
          "internalType": "uint256",
          "name": "_nonMemberTicketCostCoins",
          "type": "uint256"
        },
        {
          "internalType": "uint32",
          "name": "_startTime",
          "type": "uint32"
        },
        {
          "internalType": "uint32",
          "name": "_closeTime",
          "type": "uint32"
        },
        {
          "internalType": "contract IMemeXNFT",
          "name": "_nftContract",
          "type": "address"
        },
        {
          "internalType": "uint16",
          "name": "_maxTickets",
          "type": "uint16"
        },
        {
          "internalType": "uint256",
          "name": "_defaultPrizeId",
          "type": "uint256"
        },
        {
          "internalType": "enum MemeXLottery.Status",
          "name": "_status",
          "type": "uint8"
        },
        {
          "internalType": "bool",
          "name": "_isRefundable",
          "type": "bool"
        }
      ],
      "name": "updateLottery",
      "outputs": [],
      "stateMutability": "nonpayable",
      "type": "function"
    },
    {
      "inputs": [
        {
          "internalType": "address",
          "name": "newImplementation",
          "type": "address"
        }
      ],
      "name": "upgradeTo",
      "outputs": [],
      "stateMutability": "nonpayable",
      "type": "function"
    },
    {
      "inputs": [
        {
          "internalType": "address",
          "name": "newImplementation",
          "type": "address"
        },
        {
          "internalType": "bytes",
          "name": "data",
          "type": "bytes"
        }
      ],
      "name": "upgradeToAndCall",
      "outputs": [],
      "stateMutability": "payable",
      "type": "function"
    },
    {
      "inputs": [
        {
          "internalType": "uint256",
          "name": "",
          "type": "uint256"
        }
      ],
      "name": "whitelists",
      "outputs": [
        {
          "internalType": "address",
          "name": "",
          "type": "address"
        }
      ],
      "stateMutability": "view",
      "type": "function"
    },
    {
      "inputs": [
        {
          "internalType": "address payable",
          "name": "_to",
          "type": "address"
        },
        {
          "internalType": "uint256",
          "name": "_amount",
          "type": "uint256"
        }
      ],
      "name": "withdraw",
      "outputs": [],
      "stateMutability": "nonpayable",
      "type": "function"
    },
    {
      "inputs": [
        {
          "internalType": "uint256",
          "name": "",
          "type": "uint256"
        }
      ],
      "name": "withdrawals",
      "outputs": [
        {
          "internalType": "uint256",
          "name": "",
          "type": "uint256"
        }
      ],
      "stateMutability": "view",
      "type": "function"
    }
  ],
  "bytecode": "0x60a08060405234610031573060805261493290816100378239608051818181610aa7015281816111be0152612ee20152f35b600080fdfe60806040526004361015610013575b600080fd5b60003560e01c806301ffc9a71461045657806302e060c61461044d5780631398e07614610444578063220cce971461043b5780632368040014610432578063248a9ca31461042957806328990683146104205780632c75d03e146104175780632f2ff15d1461040e5780632f9aa1fe1461040557806336568abe146103fc5780633659cfe6146103f35780633f4ba83a146103ea57806340cf23d9146103e15780634538f297146103d8578063485cc955146103cf57806349c0de88146103c65780634a004467146103bd5780634bc19fee146103b45780634f1ef286146103ab57806350612da6146103a257806352d1902d1461039957806356c788b0146103905780635c975abb146103875780635cc070761461037e5780636131dee6146103755780636a6be3151461036c5780636cf64a33146103635780636e55ce1d1461035a57806376b3c8a81461035157806378a03c47146103485780638408acee1461033f5780638456cb591461033657806384a3251b1461032d57806391834cf41461032457806391d148541461031b57806393c1296b1461031257806396db752a146103095780639b7fecc314610300578063a217fddf146102f7578063b1eb96c9146102ee578063bf4002b2146102e5578063c11ab615146102dc578063cc307795146102d3578063d098a2f0146102ca578063d547741f146102c1578063d89da286146102b8578063db2c0fd114610282578063dcbad90d146102af578063dfa0dfa5146102a6578063ec909ce21461029d578063f3fef3a314610294578063f5f489981461028b578063f90328d5146102825763fe4d5add1461027a57600080fd5b61000e611e04565b5061000e6123a9565b5061000e612727565b5061000e61267a565b5061000e61247d565b5061000e612415565b5061000e6123ea565b5061000e61232f565b5061000e6122ec565b5061000e6122be565b5061000e61222e565b5061000e6121a9565b5061000e61212f565b5061000e611fad565b5061000e611f90565b5061000e611e8d565b5061000e611e04565b5061000e611caa565b5061000e611c53565b5061000e611b4d565b5061000e611ad4565b5061000e611a37565b5061000e611a0d565b5061000e611976565b5061000e611886565b5061000e611706565b5061000e611450565b5061000e61137c565b5061000e611349565b5061000e61131b565b5061000e6112f7565b5061000e61128c565b5061000e6111aa565b5061000e611158565b5061000e6110dc565b5061000e610f45565b5061000e610ec6565b5061000e610e47565b5061000e610d2e565b5061000e610c58565b5061000e610c01565b5061000e610b48565b5061000e610a79565b5061000e6109e0565b5061000e6109c0565b5061000e6108ef565b5061000e610785565b5061000e610639565b5061000e610609565b5061000e6105db565b5061000e6105b0565b5061000e610552565b5061000e6104be565b503461000e57602036600319011261000e5760043563ffffffff60e01b811680910361000e57602090637965db0b60e01b811490811561049c575b506040519015158152f35b6301ffc9a760e01b14905038610491565b6001600160a01b0381160361000e57565b503461000e57604036600319011261000e5760806105096024356104e1816104ad565b60043560005261013760205260406000209060018060a01b0316600052602052604060002090565b805490600260018201549101549060ff6040519361ffff8116855260101c161515602084015260408301526060820152f35b50634e487b7160e01b600052603260045260246000fd5b503461000e57602036600319011261000e5760043561013090815481101561000e576020916000527f2f605e086faac1d93117bbfbc18835d434e9405fadc1ca66faf4b864746daf340154604051908152f35b600091031261000e57565b503461000e57600036600319011261000e5761012f546040516001600160a01b039091168152602090f35b503461000e57602036600319011261000e576004356000526101386020526020604060002054604051908152f35b503461000e57602036600319011261000e5760043560005260656020526020600160406000200154604051908152f35b503461000e57606036600319011261000e5761012e54600435906001600160a01b0316330361071d578060009182526101316020526106ef60408320610692600260ff835460c01c166004811015610710575b14613db3565b6024357f8e372cc311d12a5394f598c3c41b36e9775c6cb51b99fde2aaca7978a8ec713f85604051a2805460ff60c01b1916600360c01b1781556044356106e484600052610138602052604060002090565b555460c01c60ff1690565b6106f881611770565b604051916000805160206148bd8339815191528484a3f35b610718611759565b61068c565b60405162461bcd60e51b815260206004820152601060248201526f4f6e6c7920524e47206164647265737360801b6044820152606490fd5b9181601f8401121561000e578235916001600160401b03831161000e576020808501948460051b01011161000e57565b503461000e57606036600319011261000e576001600160401b0360043560243582811161000e576107ba903690600401610755565b909260443590811161000e576107d4903690600401610755565b33600090815260008051602061489d8339815191526020908152604082209196929392916108079060ff905b54166132f3565b858752610131815261083863ffffffff61083061082660408b206133bc565b5163ffffffff1690565b1615156135ad565b6108438515156135f2565b61084e84861461363e565b865b85811061088c57604051868152889088907f8840be43b589db14b534f6e7451c1e971a9aa90c72beae7ae076d12ce2d6e7d490602090a2604051f35b6108ea906108e56108a889600052610135602052604060002090565b6108b3838a886136b0565b35906108e06108cb6108c6868c8c6136b0565b6136c8565b6108d3611083565b93845261ffff1687840152565b6136d2565b6136a0565b610850565b503461000e5760408060031936011261000e5760043590602435610912816104ad565b600092808452606560205261092c6001848620015461275e565b808452606560209081528385206001600160a01b03841660009081529152604090205460ff161561095c57505051f35b808452606560209081528385206001600160a01b0384166000908152915260409020805460ff19166001179055825133926001600160a01b031691907f2f8788117e7eff1d82e926ec794901d17c78024a50270940304540a733656f0d908690a451f35b503461000e57600036600319011261000e57602061013054604051908152f35b503461000e57604036600319011261000e576024356109fe816104ad565b336001600160a01b03821603610a1c57610a1a906004356129b1565b005b60405162461bcd60e51b815260206004820152602f60248201527f416363657373436f6e74726f6c3a2063616e206f6e6c792072656e6f756e636560448201526e103937b632b9903337b91039b2b63360891b6064820152608490fd5b503461000e57602036600319011261000e57610a1a600435610a9a816104ad565b610aec6001600160a01b037f0000000000000000000000000000000000000000000000000000000000000000811690610ad530831415612a41565b6000805160206148dd833981519152541614612aa2565b33600090815260008051602061489d83398151915260205260409020610b149060ff90610800565b60405190602082018281106001600160401b03821117610b3b575b60405260008252612be7565b610b43610ff5565b610b2f565b503461000e57600080600319360112610bfe5780805260656020908152604080832033600090815292529020610b809060ff90610800565b60fb5460ff811615610bc25760ff191660fb557f5db9ee0a495bf2e6ff9c91a7834c1ba4fdd244a5e8aa4e537bd38aeae4b073aa6020604051338152a1604051f35b60405162461bcd60e51b815260206004820152601460248201527314185d5cd8589b194e881b9bdd081c185d5cd95960621b6044820152606490fd5b80fd5b503461000e57604036600319011261000e57602061ffff610c4e602435610c27816104ad565b600435600052610137845260406000209060018060a01b0316600052602052604060002090565b5416604051908152f35b503461000e57602036600319011261000e5733600090815260008051602061489d8339815191526020526040812060043590610c969060ff90610800565b80825261013160205260408220600360ff825460c01c166004811015610d21575b14610cdc57805460ff60c01b1916600160c01b1781556106ef905b5460c01c60ff1690565b60405162461bcd60e51b815260206004820152601960248201527f4c6f747465727920616c726561647920636f6d706c65746564000000000000006044820152606490fd5b610d29611759565b610cb7565b503461000e57604036600319011261000e57600435610d4c816104ad565b60243590610d59826104ad565b610da4610d646132b3565b9283610e09575b610d7361323f565b610d8d60ff60005460081c16610d88816131df565b6131df565b60ff1960fb541660fb55610d9f61323f565b61291b565b61012f80546001600160a01b0319166001600160a01b03909216919091179055610dca57005b610dda61ff001960005416600055565b604051600181527f7f26b83ff96e1f2b6a682f133852f6798a09c465da95921460cefb384740249890602090a1005b61010061ff00196000541617600055610d6b565b8054821015610e3a575b60005260206000209060011b0190600090565b610e4261053b565b610e27565b503461000e57604036600319011261000e576024356004356000526101396020526040600020805482101561000e57604091610e8291610e1d565b50805460019091015482519182526001600160a01b03166020820152f35b6024359063ffffffff8216820361000e57565b60e4359063ffffffff8216820361000e57565b503461000e57604036600319011261000e57610ee0610ea0565b33600090815260008051602061489d833981519152602052604081209091610f4091610f0e9060ff90610800565b600435835261013160205260408320805463ffffffff60801b191660809290921b63ffffffff60801b16919091179055565b604051f35b503461000e57602036600319011261000e57600435610f63816104ad565b33600090815260008051602061489d83398151915260205260409020610f8b9060ff90610800565b6001600160a01b03168015610fb05761012e80546001600160a01b0319169091179055005b60405162461bcd60e51b815260206004820152601d60248201527f436f6e7472616374732063616e6e6f74206265203020616464726573730000006044820152606490fd5b50634e487b7160e01b600052604160045260246000fd5b6001600160401b03811161101f57604052565b611027610ff5565b604052565b604081019081106001600160401b0382111761101f57604052565b606081019081106001600160401b0382111761101f57604052565b90601f801991011681019081106001600160401b0382111761101f57604052565b604051906110908261102c565b565b6040519061022082018281106001600160401b0382111761101f57604052565b6020906001600160401b0381116110cf575b601f01601f19160190565b6110d7610ff5565b6110c4565b50604036600319011261000e576004356110f5816104ad565b602435906001600160401b03821161000e573660238301121561000e57816004013590611121826110b2565b9161112f6040519384611062565b808352366024828601011161000e576020816000926024610a1a97018387013784010152612ed8565b503461000e57604036600319011261000e5733600090815260008051602061489d833981519152602052604081206111929060ff90610800565b60043581526101336020526024356040822055604051f35b503461000e57600036600319011261000e577f00000000000000000000000000000000000000000000000000000000000000006001600160a01b03163003611209576040516000805160206148dd8339815191528152602090f35b0390f35b60405162461bcd60e51b815260206004820152603860248201527f555550535570677261646561626c653a206d757374206e6f742062652063616c60448201527f6c6564207468726f7567682064656c656761746563616c6c00000000000000006064820152608490fd5b8015150361000e57565b610184359061109082611274565b503461000e5761018036600319011261000e576112a7610eb3565b610104359063ffffffff8216820361000e57610a1a91610124356112ca816104ad565b61014435916112d883611274565b610164359360c43560a4356084356064356044356024356004356138aa565b503461000e57600036600319011261000e57602060ff60fb54166040519015158152f35b503461000e57602036600319011261000e5760043560005261013a6020526020604060002054604051908152f35b503461000e57604036600319011261000e57602061137460243561136c816104ad565b600435614733565b604051908152f35b503461000e57604036600319011261000e57611396610ea0565b33600090815260008051602061489d833981519152602052604081209091906113c19060ff90610800565b6004358252610131602052604082209063ffffffff918281541692831561141457610f40936113f291841611613332565b9067ffffffff0000000082549160201b169067ffffffff000000001916179055565b60405162461bcd60e51b8152602060048201526014602482015273131bdd1d195c9e481a59081b9bdd08199bdd5b9960621b6044820152606490fd5b503461000e5760a036600319011261000e57600435602435611471816104ad565b60443560643592608435936001600160401b03851161000e5761158061149e61157b963690600401610755565b96906114af60ff60fb541615613e87565b6114df876114c887600052610137602052604060002090565b9060018060a01b0316600052602052604060002090565b976114f586600052610131602052604060002090565b9861153761153261152e611527896115188c600052610136602052604060002090565b90600052602052604060002090565b5460ff1690565b1590565b614544565b60018a015460a01c60ff166116c3575b5061157661155786898b8a614682565b9261156d88600052610133602052604060002090565b549236916145f1565b6146d8565b61463f565b6115ad61159c856114c885600052610137602052604060002090565b805462ff0000191662010000179055565b6115fe6115f16115db60016115cd86600052610131602052604060002090565b01546001600160a01b031690565b9261151885600052610136602052604060002090565b805460ff19166001179055565b600360018060a01b03809216950154853b1561000e576040516305661ce360e11b81526001600160a01b03861660048201526024810185905260016044820152606481019190915260a06084820152600060a48201819052958690829060c490829084905af180156116b6575b61169d575b506040519316907f4aa95f981a8337cb337de335b965507da0879c3b49f799d20058e913f5ad2c268585a4f35b806116aa6116b09261100c565b806105a5565b38611670565b6116be612b2d565b61166b565b6116fe60026116e6886116e18b600052610139602052604060002090565b610e1d565b505492019182546116f98282101561459a565b6134f2565b905538611547565b503461000e57604036600319011261000e576024356004356000526101356020526040600020805482101561000e5760409161174191610e1d565b5061ffff600182549201541682519182526020820152f35b50634e487b7160e01b600052602160045260246000fd5b6004111561177a57565b611090611759565b90600482101561178f5752565b611797611759565b52565b815163ffffffff1681526102208101929160208181015163ffffffff169083015260408181015163ffffffff169083015260608181015163ffffffff169083015260808181015163ffffffff169083015260a08181015163ffffffff169083015261180d60c082015160c0840190611782565b60e0818101516001600160a01b0316908301526101008181015115159083015261012080820151908301526101408082015190830152610160808201519083015261018080820151908301526101a080820151908301526101c080820151908301526101e0808201519083015261020080910151910152565b503461000e57602036600319011261000e576118a0611092565b6102006000918281528260208201528260408201528260608201528260808201528260a08201528260c08201528260e08201528261010082015282610120820152826101408201528261016082015282610180820152826101a0820152826101c0820152826101e0820152015261120561192f61192a600435600052610131602052604060002090565b6133bc565b6040519182918261179a565b6020908160408183019282815285518094520193019160005b828110611962575050505090565b835185529381019392810192600101611954565b503461000e5760208060031936011261000e57600435611995816104ad565b6001600160a01b0316600090815261013482526040808220905181548082529183528383208185019491939092915b8282106119e757611205856119db81890382611062565b6040519182918261193b565b8354865294850194600193840193909101906119c4565b60843590600382101561000e57565b50606036600319011261000e57604435600381101561000e57611374602091602435600435613ec6565b503461000e57600080600319360112610bfe5780805260656020908152604080832033600090815292529020611a6f9060ff90610800565b600160fb54611a8160ff821615613e87565b60ff19161760fb557f62e78cea01bee320cd4e420270b5ea74000d11b0c9f74754ebdbfc544b05a2586020604051338152a1604051f35b61ffff81160361000e57565b6101643590600482101561000e57565b503461000e576101a036600319011261000e5760c43563ffffffff8116810361000e57610a1a90611b03610eb3565b906101043590611b12826104ad565b61012435611b1f81611ab8565b611b27611ac4565b92611b3061127e565b94610144359360a435608435606435604435602435600435613737565b503461000e5760408060031936011261000e576000808052606560209081528282203383529052604081209091906004359060243590611b8f9060ff90610800565b8184526101358060205283852054821015611c195791611c00611c1192611c1694838852602052611bfa611be3878920611bdd611bd787600052610135602052604060002090565b546134e3565b90610e1d565b50916116e185600052610135602052604060002090565b90613520565b600052610135602052604060002090565b613562565b51f35b835162461bcd60e51b8152602060048201526013602482015272496e646578206f7574206f6620626f756e647360681b6044820152606490fd5b503461000e57604036600319011261000e57602060ff611c9e602435611c78816104ad565b6004356000526065845260406000209060018060a01b0316600052602052604060002090565b54166040519015158152f35b5060a036600319011261000e576044356064356001600160401b03811161000e5761120591611ce0611d51923690600401610755565b90611ce96119fe565b61012f54909390611d0a906001600160a01b03165b6001600160a01b031690565b60405163f662781d60e01b8152336004820152602094919083908681602481865afa908115611df7575b600091611dda575b5010611d61575b878787602435600435613ec6565b6040519081529081906020820190565b611d8793600086946040519687958694859363164b8dcb60e31b85523360048601613e41565b03925af18015611dcd575b611d9f575b808080611d43565b81611dbe92903d10611dc6575b611db68183611062565b810190612b1e565b503880611d97565b503d611dac565b611dd5612b2d565b611d92565b611df19150873d8911611dc657611db68183611062565b38611d3c565b611dff612b2d565b611d34565b503461000e57602036600319011261000e57600435600052610132602052602060018060a01b0360406000205416604051908152f35b60208082019080835283518092528060408094019401926000905b838210611e6457505050505090565b8451805187528301516001600160a01b0316868401529485019493820193600190910190611e55565b503461000e57606036600319011261000e57600435602435604435818110611f83575b60018282036001198111611f76575b0190611eca8261338a565b92604092611eda84519586611062565b808552611ee9601f199161338a565b016000805b828110611f54575050505b81811115611f0e578251806112058682611e3a565b80611f34611f2e611f4f936116e189600052610139602052604060002090565b50613e1a565b611f3e8287613df8565b52611f498186613df8565b506136a0565b611ef9565b6020908651611f628161102c565b838152828481830152828a01015201611eee565b611f7e61303b565b611ebf565b611f8b61303b565b611eb0565b503461000e57600036600319011261000e57602060405160008152f35b503461000e5760208060031936011261000e576000808052606582526040808220338352602052812090916004359161209b9190611fed9060ff90610800565b61204c600261203d61200a86600052610131602052604060002090565b60ff81546120214263ffffffff838a1c1610613d23565b60c01c1661202e81611770565b156120f3575460c01c60ff1690565b61204681611770565b14613d67565b61012e54612062906001600160a01b0316611cfe565b604051632cdc85e960e21b8152600481018590529082908290602490829089905af19182156120e6575b85926120c9575b505061012d55565b61012d54604051917ff8cdf8355a0f31bbad8998a631f5a75dcb3e475a010b34a111ed105fe88e751a8484a3f35b6120df9250803d10611dc657611db68183611062565b3880612093565b6120ee612b2d565b61208c565b805460ff60c01b1916600160c11b178155805460c01c60ff1661211581611770565b876000805160206148bd8339815191528a604051a3610cd2565b503461000e57604036600319011261000e57612149610ea0565b33600090815260008051602061489d833981519152602052604081209091610f40916121779060ff90610800565b600435835261013160205260408320805463ffffffff60601b191660609290921b63ffffffff60601b16919091179055565b503461000e57602036600319011261000e57600435600052610131602052602063ffffffff60406000205460a01c16604051908152f35b60208082019080835283518092528060408094019401926000905b83821061220a57505050505090565b84518051875283015161ffff168684015294850194938201936001909101906121fb565b503461000e5760208060031936011261000e5760043560005261013581526040908160002080549061225f8261338a565b9261226c85519485611062565b82845260009182528082208185015b84841061228f5786518061120588826121e0565b60028360019289516122a08161102c565b8554815261ffff85870154168382015281520192019301929061227b565b503461000e57602036600319011261000e576004356000526101336020526020604060002054604051908152f35b503461000e57604036600319011261000e57610a1a602435600435612310826104ad565b80600052606560205261232a60016040600020015461275e565b6129b1565b503461000e57604036600319011261000e5760243561234d816104ad565b33600090815260008051602061489d833981519152602052604081209091610f409161237b9060ff90610800565b60043583526101326020526040832080546001600160a01b0319166001600160a01b03909216919091179055565b503461000e57604036600319011261000e576004356000526101366020526040600020602435600052602052602060ff604060002054166040519015158152f35b503461000e57600036600319011261000e5761012e546040516001600160a01b039091168152602090f35b503461000e57602036600319011261000e57600435612433816104ad565b33600090815260008051602061489d8339815191526020526040902061245b9060ff90610800565b61012f80546001600160a01b0319166001600160a01b03909216919091179055005b503461000e57602036600319011261000e576004356124a160ff60fb541615613e87565b6124b681600052610131602052604060002090565b6124e16124ce83600052610137602052604060002090565b3360009081526020919091526040902090565b906124f1815460ff9060c01c1690565b6124fa81611770565b600381036125805750600101546002919060a01c60ff1680612574575b61252090614806565b01906000825492556125446000808060405186335af161253e612ea8565b50614860565b60405191825233917f7ca5472b7ea78c2c0141c5a12ee6d170cf4ce8ed06be3d22c8252ddfc7a6a2c490602090a3005b50808201541515612517565b6001915061258d81611770565b03612622576125a1600282015415156147c7565b61012f546125b7906001600160a01b0316611cfe565b906001810154823b1561000e57604051633e098a6b60e21b815233600482015260248101919091526002926000908290604490829084905af18015612615575b612602575b50612520565b806116aa61260f9261100c565b386125fc565b61261d612b2d565b6125f7565b60405162461bcd60e51b815260206004820152602660248201527f43616e27742061736b20666f72206120726566756e64206f6e2074686973206c6044820152656f747465727960d01b6064820152608490fd5b0390fd5b503461000e57604036600319011261000e57600435612698816104ad565b33600090815260008051602061489d8339815191526020526040812090918291829182916126c89060ff90610800565b60405190602435906001600160a01b03165af16126e3612ea8565b50156126ee57604051f35b60405162461bcd60e51b815260206004820152601160248201527015da5d1a191c985dd85b0819985a5b1959607a1b6044820152606490fd5b503461000e57602036600319011261000e57600435600052610131602052602063ffffffff60406000205460401c16604051908152f35b600081815260656020908152604080832033845290915290205460ff16156127835750565b339061278d612b03565b91603061279984613085565b5360786127a58461309b565b5360295b600181116128545761267661281161283c8661282e6127d1886127cc89156130e6565b613131565b61280b60405195869461280b602087016017907f416363657373436f6e74726f6c3a206163636f756e742000000000000000000081520190565b906128d8565b7001034b99036b4b9b9b4b733903937b6329607d1b815260110190565b03601f198101835282611062565b60405162461bcd60e51b8152918291600483016128ef565b9080600f61289192166010811015612896575b6f181899199a1a9b1b9c1cb0b131b232b360811b901a61288784876130ac565b5360041c916130cb565b6127a9565b61289e61053b565b612867565b918091926000905b8282106128c35750116128bc575050565b6000910152565b915080602091830151818601520182916128ab565b906128eb602092828151948592016128a3565b0190565b6040916020825261290f81518092816020860152602086860191016128a3565b601f01601f1916010190565b6001600160a01b038116600090815260008051602061489d833981519152602052604081205460ff161561294d575050565b8080526065602090815260408083206001600160a01b038516600090815292529020805460ff1916600117905560405133926001600160a01b031691907f2f8788117e7eff1d82e926ec794901d17c78024a50270940304540a733656f0d908290a4565b60008181526065602090815260408083206001600160a01b038616845290915290205460ff166129df575050565b60008181526065602090815260408083206001600160a01b03861684529091529020805460ff1916905560405133926001600160a01b031691907ff6391f5c32d9c69d2a47ea670b442974b53935d1edc7fd64eb21e047a839171b90600090a4565b15612a4857565b60405162461bcd60e51b815260206004820152602c60248201527f46756e6374696f6e206d7573742062652063616c6c6564207468726f7567682060448201526b19195b1959d85d1958d85b1b60a21b6064820152608490fd5b15612aa957565b60405162461bcd60e51b815260206004820152602c60248201527f46756e6374696f6e206d7573742062652063616c6c6564207468726f7567682060448201526b6163746976652070726f787960a01b6064820152608490fd5b60405190612b1082611047565b602a82526040366020840137565b9081602091031261000e575190565b506040513d6000823e3d90fd5b15612b4157565b60405162461bcd60e51b815260206004820152602960248201527f45524331393637557067726164653a20756e737570706f727465642070726f786044820152681a58589b195555525160ba1b6064820152608490fd5b60809060208152602e60208201527f45524331393637557067726164653a206e657720696d706c656d656e7461746960408201526d6f6e206973206e6f74205555505360901b60608201520190565b90612c137f4910fdfa16fed3260ed0e7147f7cc6da11a60208b5b9406d12a635614ffd91435460ff1690565b15612c22575061109090612caa565b6040516352d1902d60e01b8152916020836004816001600160a01b0385165afa60009381612c8a575b50612c695760405162461bcd60e51b81528061267660048201612b98565b612c856000805160206148dd8339815191526110909414612b3a565b612d3a565b612ca391945060203d8111611dc657611db68183611062565b9238612c4b565b803b15612cdf576000805160206148dd83398151915280546001600160a01b0319166001600160a01b03909216919091179055565b60405162461bcd60e51b815260206004820152602d60248201527f455243313936373a206e657720696d706c656d656e746174696f6e206973206e60448201526c1bdd08184818dbdb9d1c9858dd609a1b6064820152608490fd5b612d4381612caa565b6040516001600160a01b0382167fbc7cd75a20ee27fd9adebab32041f755214dbc6bffa90cc0225b39da2e5c2d3b600083a2825115801590612e4a575b612d8957505050565b813b15612df9575060008281926020612df695519201905af4612daa612ea8565b60405191612db783611047565b602783527f416464726573733a206c6f772d6c6576656c2064656c65676174652063616c6c6020840152660819985a5b195960ca1b6040840152613003565b50565b62461bcd60e51b815260206004820152602660248201527f416464726573733a2064656c65676174652063616c6c20746f206e6f6e2d636f6044820152651b9d1c9858dd60d21b6064820152608490fd5b506000612d80565b612e5b81612caa565b6040516001600160a01b0382167fbc7cd75a20ee27fd9adebab32041f755214dbc6bffa90cc0225b39da2e5c2d3b600083a2825115801590612ea057612d8957505050565b506001612d80565b3d15612ed3573d90612eb9826110b2565b91612ec76040519384611062565b82523d6000602084013e565b606090565b6001600160a01b037f000000000000000000000000000000000000000000000000000000000000000081169290612f1130851415612a41565b612f2e6000805160206148dd833981519152948286541614612aa2565b33600090815260008051602061489d83398151915260205260409020612f569060ff90610800565b7f4910fdfa16fed3260ed0e7147f7cc6da11a60208b5b9406d12a635614ffd91435460ff1615612f8c5750506110909150612caa565b6020600491604094939451928380926352d1902d60e01b825286165afa60009181612fe3575b50612fd05760405162461bcd60e51b81528061267660048201612b98565b61109093612fde9114612b3a565b612e52565b612ffc91925060203d8111611dc657611db68183611062565b9038612fb2565b9091901561300f575090565b81511561301f5750805190602001fd5b60405162461bcd60e51b815290819061267690600483016128ef565b50634e487b7160e01b600052601160045260246000fd5b8060001904821181151516613065570290565b61306d61303b565b0290565b8119811161307d570190565b6128eb61303b565b602090805115613093570190565b6128eb61053b565b602190805160011015613093570190565b9060209180518210156130be57010190565b6130c661053b565b010190565b80156130d9575b6000190190565b6130e161303b565b6130d2565b156130ed57565b606460405162461bcd60e51b815260206004820152602060248201527f537472696e67733a20686578206c656e67746820696e73756666696369656e746044820152fd5b60405190608082018281106001600160401b038211176131d2575b604052604282526060366020840137603061316683613085565b5360786131728361309b565b536041905b6001821161318d5761318a9150156130e6565b90565b80600f6131bf921660108110156131c5575b6f181899199a1a9b1b9c1cb0b131b232b360811b901a61288784866130ac565b90613177565b6131cd61053b565b61319f565b6131da610ff5565b61314c565b156131e657565b60405162461bcd60e51b815260206004820152602b60248201527f496e697469616c697a61626c653a20636f6e7472616374206973206e6f74206960448201526a6e697469616c697a696e6760a81b6064820152608490fd5b61109060ff60005460081c166131df565b1561325757565b60405162461bcd60e51b815260206004820152602e60248201527f496e697469616c697a61626c653a20636f6e747261637420697320616c72656160448201526d191e481a5b9a5d1a585b1a5e995960921b6064820152608490fd5b60005460ff8160081c166000146132d557506132d0303b15613250565b600090565b806132e6600160ff81941610613250565b60ff191617600055600190565b156132fa57565b60405162461bcd60e51b815260206004820152601060248201526f41646d696e2063616c6c73206f6e6c7960801b6044820152606490fd5b1561333957565b60405162461bcd60e51b815260206004820152602360248201527f436c6f73652074696d65206d7573742062652061667465722073746172742074604482015262696d6560e81b6064820152608490fd5b6020906001600160401b0381116133a3575b60051b0190565b6133ab610ff5565b61339c565b600482101561178f5752565b9060096133c7611092565b9261346a60ff825461345d63ffffffff6133e98184168a9063ffffffff169052565b613401818460201c1660208b019063ffffffff169052565b613419818460401c1660408b019063ffffffff169052565b613431818460601c1660608b019063ffffffff169052565b613449818460801c1660808b019063ffffffff169052565b8260a01c1660a089019063ffffffff169052565b60c01c1660c086016133b0565b60018101546001600160a01b03811660e086015260a01c60ff161515610100850152600281015461012085015260038101546101408501526004810154610160850152600581015461018085015260068101546101a085015260078101546101c085015260088101546101e08501520154610200830152565b600181106130d9576000190190565b8181106134fd570390565b61350561303b565b0390565b50634e487b7160e01b600052600060045260246000fd5b90613555575b818103613531575050565b600161ffff81846110909554855501541691019061ffff1661ffff19825416179055565b61355d613509565b613526565b805480156135975760001901906000600161357d8484610e1d565b61358a575b828155015555565b613592613509565b613582565b634e487b7160e01b600052603160045260246000fd5b156135b457565b60405162461bcd60e51b8152602060048201526016602482015275131bdd1d195c9e48191bd95cc81b9bdd08195e1a5cdd60521b6044820152606490fd5b156135f957565b60405162461bcd60e51b815260206004820152601b60248201527f4e756d626572206f66207072697a65732063616e2774206265203000000000006044820152606490fd5b1561364557565b60405162461bcd60e51b815260206004820152602d60248201527f4e756d626572206f66207072697a652069647320616e6420616d6f756e74732060448201526c1b5d5cdd08189948195c5d585b609a1b6064820152608490fd5b600190600019811461307d570190565b91908110156136c05760051b0190565b6133ab61053b565b3561318a81611ab8565b90600161ffff60206136fb61109095805490600160401b82101561372a575b8582018155610e1d565b94909461371d575b8051855501511691019061ffff1661ffff19825416179055565b613725613509565b613703565b613732610ff5565b6136f1565b33600090815260008051602061489d833981519152602052604081209c9d919c909b999a919997988e98979296929592949293915460ff16613778906132f3565b8d8d5261013160205260408d20998a546137959063ffffffff1690565b63ffffffff1615156137a6906135ad565b8a5463ffffffff191663ffffffff909116178a55895467ffffffff00000000191660209190911b67ffffffff0000000016178955600489015560058801556006870155600786015560088501556001840180546001600160a01b0319166001600160a01b03909716969096178655835460609190911b61ffff60601b1663ffffffff60601b19909116178355600983015561384091613878565b815460ff60a01b191690151560a01b60ff60a01b1617905561386183611770565b604051906000805160206148bd83398151915291a3565b90600481101561389d575b815460ff60c01b191660c09190911b60ff60c01b16179055565b6138a5611759565b613883565b33600090815260008051602061489d83398151915260205260408120909c929b989a9199929892905460ff166138df906132f3565b6138f363ffffffff8c811690831611613332565b60405163185153c360e01b8152600481018d90528d906001600160a01b03841681602481855a94602095f19081159261393793613a2d575b916139ff575b50613a4f565b6139408c613a9b565b613948611092565b63ffffffff909b168b5263ffffffff1660208b015260408a018c905260608a018c905260808a018c905260a08a018c905260c08a018c90526001600160a01b031660e08a0152151561010089015286610120890152886101408901526101608801526101808701526101a08601526101c08501526101e08401526102008301526139dd90600052610131602052604060002090565b906139e791613b44565b81604051906000805160206148bd83398151915291a3565b613a20915060203d8111613a26575b613a188183611062565b810190613a3a565b38613931565b503d613a0e565b613a35612b2d565b61392b565b9081602091031261000e575161318a81611274565b15613a5657565b60405162461bcd60e51b815260206004820152601960248201527f436f6c6c656374696f6e20646f6573206e6f74206578697374000000000000006044820152606490fd5b610130805490600160401b821015613af2575b60018201808255821015613ae5575b6000527f2f605e086faac1d93117bbfbc18835d434e9405fadc1ca66faf4b864746daf340155565b613aed61053b565b613abd565b613afa610ff5565b613aae565b805490600160401b821015613b37575b60018201808255821015613b2a575b60005260206000200155565b613b3261053b565b613b1e565b613b3f610ff5565b613b0f565b90610200600991613b72613b5c825163ffffffff1690565b855463ffffffff191663ffffffff909116178555565b613ba8613b86602083015163ffffffff1690565b855467ffffffff00000000191660209190911b67ffffffff0000000016178555565b613be1613bbc604083015163ffffffff1690565b85546bffffffff0000000000000000191660409190911b63ffffffff60401b16178555565b613c15613bf5606083015163ffffffff1690565b855463ffffffff60601b191660609190911b63ffffffff60601b16178555565b613c49613c29608083015163ffffffff1690565b855463ffffffff60801b191660809190911b63ffffffff60801b16178555565b613c7d613c5d60a083015163ffffffff1690565b855463ffffffff60a01b191660a09190911b63ffffffff60a01b16178555565b613c9460c0820151613c8e81611770565b85613878565b60e08101516001850180546101008401516001600160a01b039093166001600160a81b03199091161791151560a01b60ff60a01b1691909117905561012081015160028501556101408101516003850155610160810151600485015561018081015160058501556101a081015160068501556101c081015160078501556101e081015160088501550151910155565b15613d2a57565b60405162461bcd60e51b8152602060048201526015602482015274131bdd1d195c9e481a5cc81b9bdd0818db1bdcd959605a1b6044820152606490fd5b15613d6e57565b60405162461bcd60e51b815260206004820152601760248201527f4c6f7474657279206d75737420626520636c6f736564210000000000000000006044820152606490fd5b15613dba57565b60405162461bcd60e51b8152602060048201526016602482015275131bdd1d195c9e481b5d5cdd0818994818db1bdcd95960521b6044820152606490fd5b6020918151811015613e0d575b60051b010190565b613e1561053b565b613e05565b90604051613e278161102c565b825481526001909201546001600160a01b03166020830152565b6001600160a01b039091168152602081019190915260606040820181905281018390526001600160fb1b03831161000e5760809260051b80928483013701016000815290565b15613e8e57565b60405162461bcd60e51b815260206004820152601060248201526f14185d5cd8589b194e881c185d5cd95960821b6044820152606490fd5b9061318a9291613edb60ff60fb541615613e87565b600081815261013260205260409020546001600160a01b0316156141a257613f64613f27611cfe611cfe613f1a85600052610132602052604060002090565b546001600160a01b031690565b6040516320c18e6b60e21b81523360048201526024810184905290602090829060449082905afa908115613f87575b600091613f69575b50613f94565b6141a2565b613f81915060203d8111613a2657613a188183611062565b38613f5e565b613f8f612b2d565b613f56565b15613f9b57565b60405162461bcd60e51b815260206004820152600f60248201526e139bdd081dda1a5d195b1a5cdd1959608a1b6044820152606490fd5b15613fd957565b60405162461bcd60e51b815260206004820152601060248201526f151a58dad95d1cc81cdbdb19081bdd5d60821b6044820152606490fd5b1561401857565b606460405162461bcd60e51b815260206004820152602060248201527f43616e277420627579207468697320616d6f756e74206f66207469636b6574736044820152fd5b1561406357565b60405162461bcd60e51b81526020600482015260136024820152722637ba3a32b93c9034b9903737ba1037b832b760691b6044820152606490fd5b6003111561177a57565b9063ffffffff808093169116809203811161307d570190565b156140c857565b60405162461bcd60e51b815260206004820152602b60248201527f4469646e2774207472616e7366657220656e6f7567682066756e647320746f2060448201526a627579207469636b65747360a81b6064820152608490fd5b60019063ffffffff80911690811461307d570190565b90808203614143575050565b8054825461ffff191661ffff919091161782556002908190805462ff000060ff86549260101c16151560101b169062ff00001916178455600181015460018501550154910155565b9061ffff808093169116809203811161307d570190565b916141b883600052610131602052604060002090565b9260009084549163ffffffff95868460601c16806143c5575b506141ea6124ce84600052610137602052604060002090565b916142256142046141fd855461ffff1690565b61ffff1690565b95898160801c16806143aa575b50428a82161115908161439a575b5061405c565b61422e8661409e565b600186036143845750908160076142e2930154946142b261426d61425660068501548b613052565b60018601614265828254613071565b9055336143e5565b995b6142aa613c5d61427f8a8d613052565b926002880161428f858254613071565b90558c166142a5875463ffffffff9060a01c1690565b6140a8565b3410156140c1565b15614309575b506142d261ffff87166142cd835461ffff1690565b61418b565b61ffff1661ffff19825416179055565b60005b8481106142f457505050505090565b614304906108e585853386614456565b6142e5565b3360009081526101346020526040902061435c9190614329908690613aff565b805461433d9060401c63ffffffff16614121565b63ffffffff60401b82549160401b169063ffffffff60401b1916179055565b61437e81614379336114c887600052610137602052604060002090565b614137565b386142b8565b9693906142e292916142b260088301549661426f565b905089429160201c16113861421f565b6143bf906143b88b8a613071565b1115614011565b38614211565b6143df906143d8888a8860a01c16613071565b1115613fd2565b386141d1565b61012f54604051631e961d2760e01b81526001600160a01b039283166004820152602481019390935260209183916044918391600091165af1908115614449575b600091614431575090565b61318a915060203d8111611dc657611db68183611062565b614451612b2d565b614426565b917f6db99f40d64a2e08ae90711b4bab5faa5fbaa97856e45e49495e75a07758469a91936144fc60409283519061448c8261102c565b815260016020820197818060a01b0380911698898152886000526101396020526144cc87600020805490600160401b82101561372a578582018155610e1d565b949094614537575b518455511691019060018060a01b03166bffffffffffffffffffffffff60a01b825416179055565b61451184600052610139602052604060002090565b54908251918252600381101561452a575b6020820152a3565b614532611759565b614522565b61453f613509565b6144d4565b1561454b57565b60405162461bcd60e51b815260206004820152602160248201527f5061727469636970616e7420616c726561647920636c61696d6564207072697a6044820152606560f81b6064820152608490fd5b156145a157565b60405162461bcd60e51b815260206004820152602260248201527f5061727469636970616e742068617320726571756573746564206120726566756044820152611b9960f21b6064820152608490fd5b92916145fc8261338a565b9161460a6040519384611062565b829481845260208094019160051b810192831161000e57905b8282106146305750505050565b81358152908301908301614623565b1561464657565b60405162461bcd60e51b815260206004820152601460248201527324b73b30b634b21036b2b935b63290383937b7b360611b6044820152606490fd5b929091604051926020840194855260018060a01b03166040840152606083015260808201526080815260a081018181106001600160401b038211176146cb575b60405251902090565b6146d3610ff5565b6146c2565b929091906000915b845183101561472b576146f38386613df8565b5190818111614716576000526020526147106040600020926136a0565b916146e0565b906000526020526147106040600020926136a0565b915092501490565b60005261013160205261476760406000209161013760205260406000209060018060a01b0316600052602052604060002090565b9060ff815460c01c169061477a82611770565b600382149182156147b1575b508161479f575b506147985750600090565b6002015490565b60ff91506001015460a01c163861478d565b60019192506147bf81611770565b149038614786565b156147ce57565b60405162461bcd60e51b815260206004820152601060248201526f105b1c9958591e481c99599d5b99195960821b6044820152606490fd5b1561480d57565b60405162461bcd60e51b815260206004820152602560248201527f5061727469636970616e7420686173206e6f20726566756e6461626c65207469604482015264636b65747360d81b6064820152608490fd5b1561486757565b60405162461bcd60e51b815260206004820152600d60248201526c1499599d5b990819985a5b1959609a1b6044820152606490fdfeffdfc1249c027f9191656349feb0761381bb32c9f557e01f419fd08754bf5a1ba3aca9ae20a0379d4094b84c749cbed6584ab20f0b71af75f63f6615d879c939360894a13ba1a3210667c828492db98dca3e2076cc3735a920a3ca505d382bbca2646970667358221220389e05a583c73da42e8f36cabb418e9f2c988d389b46f623c315e28648ea313264736f6c634300080e0033",
  "linkReferences": {},
  "deployedLinkReferences": {}
}